:100000000A128A11F32FFF1B0D2883137F18831701
:100010000008840A0319FF0A08007F087F398A0054
:0A0020000408840A0319FF0A820095
:100B040064008001840A0406031900340406832D5A
:100B14000C308316031399001812831203139817C9
:100B2400831603139816831203130C121816080065
:100B34008316031788018901831603138601831220
:100B44000313860183160313880183120313880198
:100B54000800F00007307006031DB12DB22DB62D2C
:100B64007030831603138F0406307006031DBB2DEB
:100B7400BC2DC22D831603130F088F3960388F00E4
:100B8400831603130F14080083120313051083162E
:100B940003130514831603170814831203139F13F6
:100BA4001F17831603139F121F129F13831203131D
:100BB4001F144230F000F00BDD2D00000800F62D6C
:100BC4000C1EE52DE62DE22D3808FF0037088400C1
:100BD4000A128A1103200A128A1199000130B707F8
:100BE4000318B80A0030B807831203133808FF004B
:100BF400370884000A128A1103200A128A11003A63
:100C0400031D052E062EE22D080070087104031939
:100C14000C2E0D2E3C2EF501F50A1B2E013003106F
:100C2400F00DF10DFF3E031D112E0130F400740888
:100C3400F507F11F1E2E1F2E102E71087302031DBF
:100C4400252E70087202031C282E292E2F2E7008C0
:100C5400F2027108031CF303F30201300310F10CD8
:100C6400F00CFF3E031D302E0130F502031D3B2E18
:100C74003C2E1F2E7308F1007208F0000800F501E5
:100C8400F601700871040319482E492E802EF701CD
:100C9400F70A572E01300310F00DF10DFF3E031D2E
:100CA4004D2E0130F4007408F707F11F5A2E5B2E05
:100CB4004C2E01300310F50DF60DFF3E031D5C2E86
:100CC40071087302031D682E70087202031C6B2ED8
:100CD4006C2E732E7008F2027108031CF303F302E6
:100CE400751401300310F10CF00CFF3E031D742E3B
:100CF4000130F702031D7F2E802E5B2E7608F10053
:100D04007508F000080083120313B6007908B400D4
:100D14007808B3007B08F1007A08F0003408F30087
:100D24003308F2000A128A1141260A128A11710844
:100D340083120313B4007008B3000130FC007C0874
:100D4400B60733083404031DA82EA92E8C2E3608AA
:100D54008400831380010130B6027B08F1007A0815
:100D6400F0007908F3007808F2000A128A110726C5
:100D74000A128A11700883120313B5007B08F1006C
:100D84007A08F0007908F3007808F2000A128A1150
:100D940041260A128A117108F9007008F8000A3015
:100DA400831203133502031CD82ED92EDD2E0730EF
:100DB400FC007C08B5073030FC007C08B507360819
:100DC40084003508831380000130B6027808790462
:100DD400031DED2EEE2EAF2E0130FC007C08B6076D
:100DE400360808000A128A119A250A128A11073055
:100DF4000A128A11AB250A128A110A128A118A254B
:100E04000A128A110A128A11C6250A128A1100309E
:100E140083120313B7008830B8000A128A11E1253F
:100E24000A128A11663083120313B7008830B8009F
:100E34000A128A11E1250A128A11D130831203138E
:100E4400B7008830B8000A128A11E1250A128A1103
:100E5400EA3083120313B7008830B8000A128A11EB
:100E6400E1250A128A11831203138C1E3A2F3B2F99
:100E7400352F31301A06031D402F412FA32FB530D3
:100E8400B7008830B8000A128A11E1250A128A11C3
:100E9400C330831203139F059F149F18522F532F9F
:100EA4004F2F0C13831603131E0883120313B90068
:100EB40006300310B90CFF3E031D5B2F1E08BA0059
:100EC400BB010310BA0DBB0D0310BA0DBB0D3908DD
:100ED4003A07BC000030031801303B07BD003C0852
:100EE400A0003D08A100FD30B7008830B8000A1208
:100EF4008A11E1250A128A11831203132108F900C9
:100F04002008F8000A30FA000030FB0022300A12F0
:100F14008A1185260A128A1183120313B70000303E
:100F2400B8000A128A11E1250A128A111D308312AF
:100F34000313B7008930B8000A128A11E1250A1296
:100F44008A113230831203131A06031DAA2FAB2F02
:100F5400E02F0E30B7008930B8000A128A11E1255B
:100F64000A128A113D3083120313B7008830B80087
:100F74000A128A11E1250A128A11831203138C1EA4
:100F8400C42FC52FBF2F1A0886008F30B7008830B2
:100F9400B8000A128A11E1250A128A118312031376
:100FA400060899001D30B7008930B8000A128A116A
:100FB400E1250A128A11831203130C088C120630DD
:100FC40083120313BB001330BA00AD30B900B90B60
:100FD400E92FBA0BE92FBB0BE92F092F0A128A114B
:100FE400002883132030840033300A128A118225AA
:100FF4000A128A1183010A128A11F42E0D342D3437
:101004002D342D342D342D342D342D342D342D34D4
:101014002D342D342D342D342D342D342D342D34C4
:101024002D342D342D342D342D342D342D342D34B4
:101034002D342D344D3445344E3455342D342D3423
:101044002D342D342D342D342D342D342D342D3494
:101054002D342D342D342D342D342D342D342D3484
:101064002D342D342D342D342D342D342D342D3474
:101074002D342D3400340D3420344534533443346A
:101084005234493442344134203445344C342034CD
:101094004334413452344134433454344534523467
:1010A4002034513455344534203444344534533495
:1010B40045344134203445344E342034413453349F
:1010C40043344934493400340D34203445344C34E9
:1010D400493447344134203455344E344134203477
:1010E4004F345034433449344F344E34203445342F
:1010F40053344334523449344234493445344E34FD
:1011040044344F34203445344C3420344E34553434
:101114004D34453452344F3400340D342034453486
:101124006C34203461347334633469346934203466
:1011340071347534653420346534733474346134F3
:1011440020346D346F3473347434723461346E34D7
:1011540064346F3420346534733420346434653437
:101164003A34203400340D3420344C344534433480
:1011740054345534523441342034443445344C349A
:10118400203450344F34543445344E344334493489
:101194004F344D344534543452344F3400340D34C8
:1011A4002034313420342D3420344C3465346534C7
:1011B4007234203470346F34743465346E34633470
:1011C40069346F346D346534743472346F3400347C
:1011D4000D342034323420342D34203445346E34EC
:1011E40076346934613472342034413453344334B2
:1011F4004934493400340D342034563441344C34A9
:101204004F3452342034413443345434553441340B
:101214004C343A34203400340D34203445344E34C4
:1012240056344934413452342034413453344334F1
:0A1234004934493400340D3400340D
:08400000FF3FFF3FFF3FFF3FC0
:04400E00D420FF3F7C
:00000001FF
